:020000040800F2
:100000008023002029020008D318000815180008D2
:10001000D118000883040008C13600080000000061
:10002000000000000000000000000000511A00085D
:100030000D050008000000004F1A00085D1A0008B6
:10004000430200084302000843020008430200087C
:10005000430200084302000843020008430200086C
:10006000430200084302000843020008430200085C
:10007000430200084302000843020008430200084C
:10008000430200084302000843020008430200083C
:10009000430200084302000843020008430200082C
:1000A000430200084302000843020008430200081C
:1000B000430200084302000843020008430200080C
:1000C00043020008430200084302000843020008FC
:1000D00043020008430200084302000843020008EC
:1000E00043020008430200084302000843020008DC
:1000F00043020008430200084302000843020008CC
:1001000043020008430200084302000843020008BB
:1001100043020008430200084302000843020008AB
:10012000430200084302000843020008430200089B
:10013000430200084302000843020008430200088B
:10014000430200084302000843020008D5180008D3
:10015000430200084302000843020008430200086B
:10016000430200084302000843020008430200085B
:100170004302000843020008430200080000000098
:10018000430200084302000800F002F800F03CF8C7
:100190000AA090E8000C82448344AAF10107DA45E2
:1001A00001D100F031F8AFF2090EBAE80F0013F0F8
:1001B000010F18BFFB1A43F0010318477C350000FC
:1001C0009C350000103A24BF78C878C1FAD852078D
:1001D00024BF30C830C144BF04680C6070470000C1
:1001E0000023002400250026103A28BF78C1FBD840
:1001F000520728BF30C148BF0B6070471FB503F0DE
:100200008DFA1FBD10B510BD00F001F91146FFF7C2
:10021000F5FF03F067FA00F01FF903B4FFF7F2FFF0
:1002200003BC00F027F9000009488047094800474F
:10023000FEE7FEE7FEE7FEE7FEE7FEE7FEE7FEE796
:10024000FEE7FEE704480549054A064B70470000F3
:10025000F51A000889010008801D00208023002075
:10026000801F0020801F002053EA020C00F06980EC
:100270002DE9F04B4FF00006002B1FBFB3FA83F5BA
:1002800003FA05F424FA05F65E4012BF1643B2FAEB
:1002900082F502FA05F4C5F120051EBF22FA05FC1D
:1002A00044EA0C04203556EA044C4FEA144418BFC3
:1002B000641C4FF000084FF00009904271EB030CF2
:1002C00039D3002919BFB1FA81F701FA07F6B0FA5C
:1002D00080F700FA07F6C7F120071EBF20FA07FCD7
:1002E00046EA0C062037B6FBF4FCA7EB0507103FE7
:1002F00007F01F0BCBF120060CFA0BFB2CFA06F6CD
:1003000044BFB3460026202FA4BF5E464FF0000B2B
:100310005BEA060C08BF4FF0010B19EB0B09ABFBB6
:10032000027C48EB0608C01B06FB02CC0BFB03CC8F
:1003300071EB0C01C1E70B46024641464846BDE859
:10034000F08B13B54FF000004FF00001AFF30080C9
:10035000BDE81C40704710B5203AC0F00B80B1E8F2
:100360001850203AA0E81850B1E81850A0E81850EA
:10037000BFF4F5AF5FEA027C24BFB1E81850A0E8F3
:10038000185044BF18C918C0BDE810405FEA827C0D
:1003900024BF51F8043B40F8043B08BF7047D20724
:1003A00028BF31F8023B48BF11F8012B28BF20F8C5
:1003B000023B48BF00F8012B70474FF0000200B528
:1003C000134694469646203922BFA0E80C50A0E878
:1003D0000C50B1F12001BFF4F7AF090728BFA0E826
:1003E0000C5048BF0CC05DF804EB890028BF40F8F2
:1003F000042B08BF704748BF20F8022B11F0804F34
:1004000018BF00F8012B704770477047704775465A
:1004100000F02CF8AE4605006946534620F0070070
:10042000854618B020B5FFF70DFFBDE820404FF01E
:1004300000064FF000074FF000084FF0000B21F0CE
:100440000701AC46ACE8C009ACE8C009ACE8C0099B
:10045000ACE8C0098D46704710B50446AFF3008084
:100460002046BDE81040FFF7D8BE000000487047A6
:100470001C1D002001491820ABBEFEE7260002002B
:100480007047FEE7002070470020704710B500223B
:100490000449054801F016FD0449034801F005FD33
:1004A000002010BDF00D002014010020F0050020F8
:1004B00010B504460146074801F0F7FC054801F075
:1004C000CDFC054821680160A1888180A1798171F6
:1004D000002010BD140100200700002000207047FC
:1004E000094A10B5D2F8BC22D2F814220AB1012070
:1004F00010BD0A460146044801F0E4FCBDE8104086
:10050000014801F059BD000014010020704772B687
:10051000FEE7000070B5044600F006F90546601CD1
:1005200002D004480078044400F0FEF8401BA042CA
:10053000FAD370BD740000202DE9F84FDFF8BCA19C
:100540000022012503264FF00F090AF1040BAAF13E
:10055000040E00BF0B6805FA02F42340A34270D1D9
:100560000F7907F00307012F01D0022F16D18768FA
:100570004FEA420806FA08FC27EA0C07D1F80CC03B
:100580000CFA08FC4CEA070CC0F808C04768A743FF
:100590000C79C4F3001494403C4344600C79E44368
:1005A000A4070AD0C4684FEA420C06FA0CF7BC4311
:1005B0008F6807FA0CF72743C7600C7904F003042F
:1005C000022C12D1D40800EB840CDCF82040570731
:1005D000FF0E09FA07F824EA0804D1F8108008FA97
:1005E00007F848EA0408CCF8208004684FEA420C77
:1005F00006FA0CF7BC430F7907F0030707FA0CF76C
:10060000274307604C6814F4403F70D03C4C276887
:1006100047F480472760246822F0030704F48044ED
:100620000094384C07EB040CDCF8084897074FEAB5
:10063000177809FA08F7BC43334FB84202D10027B4
:1006400024E054E0314FB84201D101271EE0304F81
:10065000B84201D1022719E02E4FB84201D1032739
:1006600014E02D4FB84201D104270FE02B4FB842C0
:1006700001D105270AE02A4FB84201D1062705E03B
:10068000284FB84201D1072700E0082707FA08F7EA
:100690002743CCF80878DAF800405746D1F804C070
:1006A0009C435FEACC2C00D51C433C60DBF8004047
:1006B0005F46D1F804C09C435FEA8C2C00D51C43F4
:1006C0003C60DEF800407746D1F804C09C435FEA06
:1006D0008C3C00D51C433C60084F083F3C68D1F877
:1006E00004C09C435FEACC3C00D51C433C60521CD8
:1006F000102AFFF42FAFBDE8F88F0000083C01403E
:100700004438024000300140000002400004024032
:1007100000080240000C0240001002400014024099
:1007200000180240001C0240014880687047000029
:10073000740000200248816802781144816070478B
:10074000740000200B4810B5016841F4007101608D
:10075000016841F480610160016841F480710160C9
:10076000032000F06FF80F2000F006F800F024F8E6
:10077000002010BD003C024070B50D4D04464FF402
:100780007A712878B1FBF0F00A490968B1FBF0F002
:1007900001F02CF848B9102C07D200222146501E37
:1007A00000F030F800206C6070BD012070BD0000CA
:1007B00074000020800000200A4808B5016841F458
:1007C00080410160006800F4804000900548001FEF
:1007D000016841F080510160006800F08050009095
:1007E00008BD000044380240002809DB00F01F0269
:1007F000012191404009800000F1E020C0F8001183
:1008000070470000F0B40E4B1B680C46C3F3022384
:10081000C3F10705042D00D90425191D072901D2AC
:10082000002300E0DB1E012606FA05F1491E2140E7
:1008300099409E40761E16403143F0BC02F041BF05
:100840000CED00E0064900F0070208684FF6FF03D0
:10085000184040EA0220034A104308607047000035
:100860000CED00E00000FA057047006841620020CE
:100870007047F0B50368586A39B19C6A4FF48276C4
:1008800000EB144400204D1E0AE040EA024098624A
:100890000FE006EB8007DF59401C04EB1744C0B2A1
:1008A000A842F6D344EA02404FF4807202EB810181
:1008B00058500020F0BDD0F8080501F003BE01EB50
:1008C000C10200EB8202D0F80805D26C01F058BDDD
:1008D00001EBC10200EB8202D0F80805D2F88C22AD
:1008E00001F0A9BDD0F8080501F0EEBD0A0601F03F
:1008F0000F0101EBC10100EB810101D53C3101E0A9
:1009000001F51F71006802F023BD70B504460B06A7
:1009100001F00F0000EBC00104EB81014FF0010278
:100920004FF0000503D581F83D203C3103E081F80C
:100930007D5201F51F71087094F8BC04012808D09D
:1009400084F8BC24206802F0BDF984F8BC5400206F
:1009500070BD022070BD70B5044601F00F006268E2
:10096000904201D9012070BD0B0601F00F0101EB8F
:10097000C10104EB81014FF001024FF0000503D5E6
:1009800081F83D203C3103E081F87D5201F51F7173
:100990008D70087094F8BC04012808D084F8BC2439
:1009A000206802F08BFB84F8BC54002070BD02204C
:1009B00070BD01F00F0101EBC10100EB8100D0F827
:1009C0009C0270472DE9F04104460F0601F00F002C
:1009D00000EBC00104EB81014FF001064FF0000570
:1009E00003D581F83D603C3103E081F87D5201F58B
:1009F0001F710870CA600B714A7802B10881022B1E
:100A000000D14D7194F8BC04012809D084F8BC646D
:100A1000206802F0AFF8284684F8BC54BDE8F081A5
:100A20000220FBE770B50C4601F00F0505EBC50190
:100A300000EB8101C1F89432C1F88C220023C1F887
:100A40009C3281F87D3281F87C52036901F51F7177
:100A5000012B00D14A612207027C006803D002F01A
:100A600085FB002070BD02F06FFAFAE770B504460E
:100A70000D4601F00F006168884201D9012070BD68
:100A800029064FF000064FF0010207D500EBC00128
:100A900004EB810181F83D203C3107E005EBC50105
:100AA00004EB810181F87D6201F51F718A70087085
:100AB00094F8BC04012807D084F8BC24206802F014
:100AC00029FB280702D007E0022070BD217C04F238
:100AD000C442206802F0C6FA84F8BC64002070BDED
:100AE00070B50C4601F00F0505EBC50100EB810167
:100AF0004B65CA640023CB65012381F83D3001F8C2
:100B00003C5F0369012B00D14A612207027C006827
:100B100003D002F02BFB002070BD02F015FAFAE7BB
:100B20002DE9FC5F05680446284602F0B2FC002867
:100B30007DD1206802F0D9FC002878D0D5F80808CB
:100B4000C0F30D20C4F8FC04206802F0CEFC80073E
:100B500004D52068416901F002014161206802F07A
:100B6000C4FCC10604F2C440009034D520688169F9
:100B700021F0100181612F6A07F00F0000EBC00027
:100B800004EB8006C7F3434006F51F76022802D027
:100B9000062811D01AE047F6F070074216D0C7F3C6
:100BA0000A1217462846316902F0A3FC306938441E
:100BB0003061306A384408E008222846009902F083
:100BC00098FC306AC7F30A110844306220688169D2
:100BD00041F010018161206802F087FC00034FF0B2
:100BE000080B4FF0000A4FF001097CD50026206861
:100BF00002F05AFC074674E0F80770D0F1B22068A2
:100C000002F06BFC8046C00707D005EB4611C1F827
:100C1000089B3146204600F063FE5FEA087024D549
:100C200005EB4611C1F808BB2068016C00E025E225
:100C300000EB46100191D0F8082BFC4B994205D9E6
:100C4000110403D54FF40041C0F8081B204600F002
:100C500005FBF6490198884207D92069012804D18B
:100C600020680121009A02F0FDF95FEAC86004D50E
:100C700005EB46111020C1F8080B5FEA88701DD5FE
:100C80006869000605D5D5F8040840F48061C5F808
:100C9000041806EBC60004EB800090F87F1200F504
:100CA0001F70012905D180F803A0F1B2204600F0A1
:100CB000EBF905EB46110220C1F8080B5FEA8860EA
:100CC00004D505EB46102021C0F8081B5FEA8840D8
:100CD00005D505EB46104FF40051C0F8081B7F08FE
:100CE000761C002F88D1206802F0FFFB40036FD5EF
:100CF000206802F0D2FB0746002667E0F80763D0C1
:100D0000F1B2206802F0D7FB8046C00723D006F07E
:100D10000F0209FA02F0D5F834288243C5F83428C6
:100D200005EB4610C0F80899206901280FD106EBA1
:100D3000C60004EB8000D0E912211144C16436B929
:100D4000606D20B920680121009A02F08BF9F1B2A0
:100D50002046FFF7B4FD5FEA087003D505EB4611A6
:100D6000C1F808B95FEAC86004D505EB4611102048
:100D7000C1F808095FEA486004D505EB4610402138
:100D8000C0F808195FEA887017D53146284602F086
:100D900053FB06EBC60004EB800090F83F103C309C
:100DA000012905D180F803A0F1B2204600F068F9CE
:100DB00005EB46110220C1F808095FEA086003D577
:100DC0003146204600F0F2FD7F08761C002F95D1B9
:100DD000206802F08AFB002811DAD5F8040820F018
:100DE0000101C5F8041894F8F40401282BD020461A
:100DF00000F018FA2068416901F000414161206863
:100E000002F073FB00050BD5D5F80808C00702D027
:100E1000204600F04BFA2068416901F4006141610D
:100E2000206802F062FBC00466D5D5F8040820F003
:100E30000100C5F804081021206802F0FDFA002125
:100E40004FF67F321FE084F8F4A400212046FFF71C
:100E50000BFDCFE705EB4110C0F80829D0F80039A9
:100E600023F40013C0F80039C0F8082BD0F8003B79
:100E700023F40013C0F8003BD0F8003B43F00063BC
:100E8000C0F8003B491C60688842E3D8D5F81C08CC
:100E900040F00111C5F81C18206B002828460DD021
:100EA000D0F8840840F00B01C5F88418D5F8440840
:100EB00040F00B012846C5F844180DE0D0F814089E
:100EC00042F22B010843C5F81408D5F8100840F089
:100ED0000B012846C5F81018D0F8000820F4FE6170
:100EE000C5F80018217C2068009A02F0BBF8206841
:100EF000416901F480514161206802F0F6FA8004F2
:100F000015D5206801F076FE206802F0B5FAE060A1
:100F100000F07EFA0146227B206802F049FB204661
:100F200000F06AF92068416901F4005141612068CC
:100F300002F0DBFA000707D5204600F077F92068B9
:100F4000416901F008014161206802F0CEFA000613
:100F500016D5A86920F08000A86101260DE000BF29
:100F600006EBC60004EB800090F87F02012803D155
:100F7000F1B22046FFF7BAFC761C6068B042EFD8A9
:100F8000206802F0B2FAC00221D501264F4616E0D1
:100F900005EB4610D0F8001906EBC60004EB800004
:100FA00090F84020012A09D1002907DA80F83F7023
:100FB000F0B240F080012046FFF798FC761C606894
:100FC000B042E5D82068416901F480114161206890
:100FD00002F08BFA800234D501204B4629E000BF95
:100FE00005EB4011D1F8001B00EBC00204EB8206B8
:100FF00096F88022012A1BD1002919DA94F8FC24E2
:1010000001F4803102F00102914211D186F87F3261
:10101000A96941F08002AA616969090608D4D5F876
:10102000040840F40070C5F8040805E00A30544F85
:10103000401C61688142D3D82068416901F40011E5
:101040004161206802F051FA400007D52046FFF7C1
:1010500032FC2068416901F080414161206802F062
:1010600044FA40070AD520684568680702D520463B
:10107000FFF738FC2068416829434160BDE8FC9FC8
:10108000D0F8080501F074BAD0F8080501F084BA68
:101090002DE9F0418AB0040005D094F8BD0426681B
:1010A000002520B108E001200AB0BDE8F08184F8F5
:1010B000BC54204600F05EF8032084F8BD04F06BB9
:1010C000C00500D42561206801F038FF04F110014B
:1010D000282288466846FFF73EF994E80F0001F0A1
:1010E00097FD0226C8BB0021206802F021FA0020EB
:1010F00001270EE000EBC00104EB810181F83D7097
:1011000001F83C0F08810D71CD600D61401CC0B22B
:101110008D6161688142EDD8002011E000EBC001D3
:1011200004EB810181F87D5281F87C0281F88052C4
:10113000C1F88852C1F88C52401CC0B2C1F8945218
:1011400061688142EAD8282241466846FFF703F9E0
:1011500094E80F0001F038FE10B184F8BD64A2E7F6
:1011600084F8385084F8BD74206801F01FFE002018
:101170009AE7000010B586B0044614216846FFF7D0
:101180001CF92068B0F1A04F2FD119480021026846
:1011900042F001020260006800F0010005904FF487
:1011A000C05000900220CDE90101032003900A20E5
:1011B000049069460F48FFF7BFF90D48001D01680C
:1011C00041F0800101600A481430016841F4804117
:1011D00001600068002200F4804005901146432021
:1011E000FFF710FB4320FFF7FFFA06B010BD000029
:1011F000303802400000024070B50446C068012546
:1012000070B1022801D0FFF782F92946D4F8080509
:1012100001F030FAD4F80805BDE8704001F0E5B9F6
:101220000025F2E7D0F8080501F00DBAD0F808055E
:1012300001F013BA10B5044690F8BC0401280BD095
:10124000012084F8BC0484F83810206802F09EF96C
:10125000002084F8BC0410BD022010BDD0F8082581
:1012600000F2C441104601F011BA10B504460068FE
:1012700094F8BC14012906D0012184F8BC14A16A99
:10128000012902D008E0022010BDA169012903D084
:10129000816B41F480318163206802F0A8F82068F6
:1012A00001F076FD002084F8BC0410BD10B50446A2
:1012B000D0F8080501F02CFA2068D0F8001E41F0A3
:1012C0000101C0F8001E206A002804D0024801680D
:1012D00041F00601016010BD10ED00E02DE9F0477E
:1012E0000E46050065D0DFF81481D8F80000F7B28B
:1012F00000F00700B04207D288F80070D8F800006C
:1013000000F00700B04254D128683D4C810712D547
:10131000400703D5206840F4E0502060287800079B
:1013200003D5206840F4604020602068A96820F060
:10133000F000084320602878C0072DD03049686845
:101340000839012812D0022813D0032811D00968C7
:10135000890700292DDA216821F00301014321606A
:10136000FFF7E2F9814641F2883A0EE00968890305
:10137000EFE709688901ECE7FFF7D6F9A0EB09016F
:10138000514502D90320BDE8F0872068696800F064
:101390000C00B0EB810FEFD1D8F80010404601F0FF
:1013A0000701B14207D90770006800F00700B0429A
:1013B00001D00120E7E72878400705D52068E968D3
:1013C00020F4E050084320602878000706D5206804
:1013D000296920F4604040EAC100206000F01EF856
:1013E0002168084AC1F30311515CC84006490860EE
:1013F00006480068FFF7C0F90020C4E7003C02403F
:1014000008380240263700088000002078000020BD
:10141000014800687047000080000020154810B5A2
:10142000006810F00C02144813D01449042A0FD09D
:10143000082A0ED10F4C241F2268236802F03F02B5
:101440005B0207D52068C0F38810A0FB010106E00D
:10145000084610BD2168C1F38811A1FB00010023DB
:10146000FEF702FF2168C1F30141491C4900B0FBAE
:10147000F1F010BD083802400024F400001BB70052
:101480002DE9F84F04006ED02078DFF84C93C007A8
:10149000A9F104054AD009F104000168C1F38101F2
:1014A000012908D00068C0F3810002280AD1D9F8C8
:1014B0000000400206D52868800337D56068002800
:1014C000E1D033E06068B0F5803F10D0B0F5A02FD8
:1014D000286810D020F480302860286820F480200C
:1014E00028606068A8B1FFF71FF906460DE028687C
:1014F00040F48030F4E740F480202860F7E700BF34
:10150000FFF712F9801B642873D828688003F7D589
:101510000CE0FFF709F9064605E000BFFFF704F904
:10152000801B6428F0D828688003F7D42078DFF87F
:10153000AC8280074FF0000A3ED5A748001D016825
:1015400011F00C0F08D00068C0F3810002280BD105
:10155000D9F80000400207D42868800716D5E06853
:10156000012800D112E033E1E068B8B10120C8F8E9
:101570000000FFF7D9F8064605E000BFFFF7D4F8F2
:10158000801B0228C0D828688007F7D52868216901
:1015900020F0F80040EAC10028600DE0C8F800A083
:1015A000FFF7C2F8064604E0FFF7BEF8801B0228EA
:1015B0001FD828688007F7D42078000722D5864FE7
:1015C00087486169703771B101210160FFF7ACF89C
:1015D000064604E0FFF7A8F8801B022809D83868FF
:1015E0008007F7D50EE0C0F800A0FFF79DF806468B
:1015F00005E082E0FFF798F8801B02287DD8386864
:101600008007F7D42078400768D5DFF8CCB10027F1
:101610000BF13C0BDBF80000C0000BD4DBF8001032
:1016200041F08051CBF80010DBF80000012700F0FA
:10163000805000906B4E3068C00510D4306840F484
:1016400080703060FFF770F8009005E0FFF76CF8ED
:101650000099401A022850D83068C005F6D55E4E71
:10166000A0686C3601280FD00528306810D020F013
:1016700001003060306820F004003060A068B8B12C
:10168000FFF752F800900FE0306840F00100F4E7F7
:1016900040F004003060F7E7FFF746F80099411A80
:1016A00041F28830814266D830688007F4D50EE078
:1016B000FFF73AF8009007E0FFF736F80099411A73
:1016C00041F28830814256D830688007F4D42FB177
:1016D000DBF8001021F08051CBF80010A069C8B3EE
:1016E0003D49091D0968C1F3810102294AD0022838
:1016F000504607D0C8F8600000E03CE0FFF714F85F
:1017000004463BE04746C8F86000FFF70DF8064680
:1017100005E000BFFFF708F8801B02282BD82868D7
:101720008001F7D4D4E907010843A16A2E4A490889
:1017300002EB0141626A41EA8211084394F82C10DD
:1017400040EA0161C9F8001001203866FEF7ECFF9D
:10175000044606E03EE000BFFEF7E6FF001B02285D
:1017600009D828688001F7D534E000BFFEF7DCFF18
:10177000001B022802D90320BDE8F88F28688001E9
:10178000F4D427E00128F7D0D9F80000E26900F48A
:10179000800191421CD1226A00F03F01914217D191
:1017A00047F6C071626A0140B1EB821F10D1A26A94
:1017B0004FF0FF3300F4403103EB5202B1EB024F24
:1017C00006D194F82C1000F07060B0EB016F01D0DE
:1017D0000120D1E70020CFE7043802400000474253
:1017E000800E4742007000400000FFFF10B5401E11
:1017F000B0F1807F01D3012010BD4FF0E024606183
:101800000F21601701F05DFF0020A061072020611B
:10181000002010BDFEE70000F0B500230A243025AB
:1018200037261F4611E000BFB4EB107F02D905EB4D
:10183000107C01E006EB107C01F813C001EB430CB7
:1018400000015B1C8CF80170DBB29342ECD3F0BD5D
:10185000094808B5016841F001010160016801F023
:1018600001010091016841F080010160006800F011
:101870008000009008BD00003038024010B5002202
:101880000F49104800F057FD08B1FEF740FE0E4921
:101890000C4800F065FF08B1FEF739FE0B49094816
:1018A00000F0F8FA08B1FEF732FE064800F0DCFF5F
:1018B000002803D0BDE81040FEF729BE10BD00008F
:1018C0001000002014010020DC0000206000002037
:1018D000FEE7FEE70148FFF723B9000010180020DB
:1018E0002DE9F04103680D4604461E6C03EB4511DB
:1018F000D1F8080BD4F810E04FF400474FF0200C5B
:1019000004F2C442BEF1010F09D0DFF898E0764539
:1019100039D1020432D500BFC1F8087B3FE0224B29
:101920005FEA007E04D59E4239D90004F4D436E043
:101930005FEA806E02D5C1F808CB30E010F0280FC6
:101940002DD19E4201D90004E6D405EBC50004EB7D
:101950008000D1F8101BD0F89832C1F31201591A47
:10196000C0F89C1200F51F70ADB983691BB1026904
:10197000114401610FE0012120680AE080060AD5C8
:10198000C1F808CB07E035B9D4F8940218B90021A2
:10199000184601F067FBE9B22046FEF799FF0020E8
:1019A000BDE8F0810A31544F0A30544F2DE9F84F09
:1019B0000E4601EBC60100EB810481460568616DAE
:1019C000E06D3C34884202D90120BDE8F88F081A46
:1019D000E168814200D20846C01C870805EB461822
:1019E0001BE000BFA0EB010AE068504500D2824630
:1019F0000AF10300870899F8100000901FFA8AF393
:101A0000F2B22846216901F047FE216901EB0A0084
:101A10002061216A01EB0A002062D8F8180980B21F
:101A2000B84205D3216AA069814201D20028D9D1E8
:101A3000216AA069884208D806F00F010120884079
:101A4000D5F834188143C5F834180020BDE7704735
:101A500070470178407841EA00207047FEF76ABE7F
:101A600030B593B030216846FEF7A7FC14210CA8CE
:101A7000FEF7A3FC1D480025016841F0805101607C
:101A8000006800F0805011901948016841F48041CD
:101A900001600068022400F4804011900120009051
:101AA000000401908001CDE9064006200890A8209E
:101AB000CDE9090407200B906846FFF7E1FC08B167
:101AC00072B6FEE70CA90F2081E831004FF4A05058
:101AD0000F904FF48050109005210CA8FFF7FEFBEB
:101AE000002801D072B6FEE713B030BD4038024086
:101AF000007000400248016841F4700101607047C5
:101B000088ED00E02DE9F0410C46D0F8D412D0F871
:101B1000C82200EB8101D1F8C01229B304F00F06EE
:101B200006EB860300EB83050027AB694BB106EBA0
:101B3000C60602EB8602926CB3FBF2F602FB16328B
:101B4000A2B1C1F81472D0F8D42200EB8200D0F810
:101B5000C40203692BB1D1F80802224601F50471D1
:101B600098470020BDE8F0810320FBE700231A46D8
:101B70002146AF6100F0D5FDF3E770B50546D0F81A
:101B8000D40205EB8000D0F8C04294B1284600F0A2
:101B9000AAFCC4F80C02D5F8D412D4F8040205EB60
:101BA0008101D1F8C412CA6804F50371904700207E
:101BB00070BD032070BD000070B5224D0446297829
:101BC00000F0D5FB2878002600F00F0000EB800025
:101BD00004EB800086846978204600F0C8FB6878B2
:101BE00000F00F0000EB800004EB8000A0F86461BF
:101BF000A978204600F0BBFBA87800F00F0000EBAE
:101C0000800004EB80008684C684D4F8D40204EB00
:101C10008000D0F8C01299B1D0F8C4024068804763
:101C2000D4F8D40204EB8000D0F8C00200F09DFF8D
:101C3000D4F8D40204EB8000C0F8C062C4F8BC62DF
:101C4000002070BD8800002010B5D0F8D41200EB41
:101C50008100D0F8C04284B1D0F8C41259B194F8D0
:101C60000002FF2807D08B6894F80122214698478C
:101C7000FF2084F80002002010BD032010BD0000EA
:101C80000A210180004870478C00002070B506468C
:101C900082210C4800F0FBFA05460121094800F0BA
:101CA000F6FA04468121074800F0F1FA0DB110213F
:101CB000A971402104B1A18000B18180432030800E
:101CC000004870BD9800002070B5064682210D487E
:101CD00000F0DDFA054601210A4800F0D8FA044672
:101CE0008121084800F0D3FA0DB11021A9714FF4F9
:101CF000007104B1A18000B181804320308001488F
:101D000070BD00009800002070B5064682210C4886
:101D100000F0BDFA05460121094800F0B8FA044672
:101D20008121074800F0B3FA0DB11021A9714021BB
:101D300004B1A18000B1818043203080004870BD93
:101D4000980000202DE9F04704464FF40775284617
:101D500000F00CFF06004FF0000863D02946FEF7A4
:101D60002CFBD4F8D4023C4D04EB80004FF010095A
:101D7000C0F8C062C4F8BC62207C4FF4007A01272E
:101D8000F0B3402302222978204600F019FC28787D
:101D9000402300F00F0000EB800004EB80008784FC
:101DA00002226978204600F00BFC6878082300F0D6
:101DB0000F0000EB800004EB80000322A0F86471A8
:101DC000A978204601F00F0101EB810104EB8101AC
:101DD000A1F82690A97800F0F3FBA87800F00F0096
:101DE00000EB800004EB80008784C6F80482D4F8FE
:101DF000D402474604EB8000D0F8C402006800E03B
:101E000018E006F5017680473761776132687AB16C
:101E1000207CF8B140236978204600F0DDFB0020EB
:101E2000BDE8F087D4F8D41204EB8101C1F8C08278
:101E30000220F5E7534602222978204600F0C0FB35
:101E40002878534600F00F0000EB800004EB800080
:101E50008784A5E75346DEE78800002010B5D0F858
:101E6000D41200EB8101D1F8C01259B1027C084CA8
:101E7000002AD1F8042207D04023617800F0ACFB9F
:101E8000002010BD032010BD4FF40073F5E70000E3
:101E90008800002039B1D0F8D42200EB8200C0F8CD
:101EA000C4120020704703207047D0F8D42200EB02
:101EB0008200D0F8C00218B1C0F8041200207047A8
:101EC00003207047D0F8D43200EB8300D0F8C00272
:101ED00028B1C0F81022C0F8081200207047032073
:101EE00070472DE9FC410646D0F8D4020C4606EBBB
:101EF00080000021D0F8C0728DF80010ADF80410F9
:101F00000D4637B1217811F060022FD0202A4BD135
:101F100002E00320BDE8FC81E288F2B109060DD59C
:101F2000D0F8C40263783946D0F808C01846E047B4
:101F3000E288072A00D9072239462DE0607887F821
:101F40000002E088402800D34020C2B287F8012276
:101F50003946304600F081F82BE0D0F8C4026378AF
:101F60000022866821461846B04722E0607830B1EA
:101F700001281ED00A2809D00B2815D110E096F8A8
:101F80009C02032810D1022201A905E096F89C02C8
:101F9000032809D101226946304600F078F808E0AC
:101FA00096F89C02032804D02146304600F04AF8F7
:101FB00003252846AEE7000010B5D0F8D41200EB98
:101FC0008101D1F8C02201211AB1D2F8143213B123
:101FD00016E0032010BD0121C2F814120949D2F8FD
:101FE0001032097801F00F0404EB840400EB840440
:101FF000A361D2F81032D2F8082200F092FB00213F
:10200000084610BD8800002010B5D0F8B822002482
:102010005268904700B10324204610BD002070474D
:1020200000207047134610B50A46002100F0D4FA8C
:10203000002010BD134610B50A46002100F071FBC8
:10204000002010BD10B50446802100F04FFB204653
:10205000BDE81040002100F049BB10B50323C0F8D3
:102060009432C0F858211346C0F85C210A4600217A
:1020700000F0B2FA002010BD10B50521C0F894128E
:1020800000231A46194600F0A7FA002010BD10B52B
:102090000223C0F8943282611346C2610A460021CD
:1020A00000F03FFB002010BD10B50421C0F89412D1
:1020B00000231A46194600F034FB002010BD000032
:1020C00010B50A46024903A000F005F9004810BD0A
:1020D000F003002043444320436F6E6669670000AD
:1020E00012200880004870473000002010B50A46D2
:1020F000024903A000F0EFF8004810BDF0030020F3
:1021000043444320496E7465726661636500000054
:1021100004200880004870472C00002010B50A46B3
:10212000024903A000F0D7F8004810BDF0030020DA
:1021300053544D6963726F656C656374726F6E6939
:102140006373000010B50A46024903A000F0C3F80B
:10215000004810BDF003002053544D33322056691F
:10216000727475616C20436F6D506F727400000063
:1021700010B51A2008800A480168001D0468001D77
:102180000068081809D008220649FFF745FB0549F1
:10219000042210312046FFF73FFB0248801E10BD8D
:1021A000107AFF1F46000020F8B504460020ADF865
:1021B000000048880D46010A08295FD2DFE801F0D7
:1021C0005E0409175E5E3C45D4F8B412207C0A68B0
:1021D00019E0207C02260028D4F8B80205D0C16A94
:1021E000684688470146467039E0816AF8E7C0B220
:1021F000062843D2DFE800F0030A1014181CD4F8B4
:10220000B402426805E0694690471CE0D4F8B40285
:10221000826892B3207CF6E7D4F8B402C268F8E78B
:10222000D4F8B4020269F4E7D4F8B4024269F0E7E2
:10223000D4F8B4028269ECE7207CF0B9D4F8B80293
:10224000416B68468847014609E0207CA8B9D4F86C
:10225000B802016B68468847014607204870EA8843
:102260008AB1BDF8000040B1824200D90246ADF803
:1022700000202046FFF70BFFF8BDFFE72946204668
:10228000FFF7E0FEF8E72046FFF70EFFF4E778B52A
:102290000E4642880178002504468A4212D9ADF8DC
:1022A00000100AE0694600F00FF84178052904D1D2
:1022B00081780546B14205D000256188BDF800202F
:1022C0009142EFD8284678BD0A8803781A440A80DC
:1022D00001780844704770B5002300281ED00025FF
:1022E000044602E06D1CEDB2641C2678002EF9D184
:1022F000022404EB450414801278CA545B1C0322A8
:10230000CA5400245B1C06E0CA545B1CDAB28C542D
:10231000521CD3B2401C0278002AF5D170BD0100D6
:102320004FF0000004D0012901D0022901D0032080
:1023300070470120704778B10023C0F8B832C0F868
:10234000C432C0F8D03209B1C0F8B412012180F80B
:102350009C12027000F0CCB80320704710B5D0F882
:10236000C802FEF7F8FABDE81040FFF7D8BF10B575
:10237000D0F8C802FEF7C9FABDE81040FFF7CFBF9A
:102380002DE9F04117460446002521B194F89C023E
:10239000032842D04CE0D4F8941204F1140002292E
:1023A00035D1D0E902639E4206D9F21A82603946DD
:1023B0002046FFF73FFE0FE0B34214D14068984239
:1023C00011D3D4F8981288420DD20022114620462B
:1023D000FFF730FEC4F8985200231A4619462046EB
:1023E00000F0FAF813E094F89C02032808D1D4F81E
:1023F000B802C16821B1C4F8D452C16820468847E8
:102400008021204600F072F92046FFF735FE94F84F
:10241000A00268B184F8A0520AE0D4F8B802426978
:1024200032B1C4F8D452426920469047002800D106
:102430000020BDE8F08170B513460446002221B1AA
:1024400094F89C02032830D03AE0D4F8941204F5B2
:10245000AA70032934D1D0E902518D420AD96A1AEF
:1024600082600846824200D3024619462046FFF7A2
:10247000D9FD25E094F8AA0210F01F0003D001282E
:1024800002D0022800D0002294F89C02032808D130
:10249000D4F8B802016921B1C4F8D42201692046F8
:1024A00088472046FFF700FE0AE0D4F8B8028369A7
:1024B00033B1C4F8D422826920469047002800D165
:1024C000002070BD0020704710B50024012180F865
:1024D0009C12D0F8B82222B152680179904700B11D
:1024E0000324204610BDD0F8C802FEF762BA0000EF
:1024F00010B5017839BB15490222C1F80805C0F8AA
:10250000C8124FF0A0400860042048600020C1E9D4
:102510000320C1E9062008624862C86208630846D1
:10252000FEF7B6FD08B1FDF7F2FF80210748FEF780
:102530009CF9402200210548FEF79BF980220121E9
:102540000248FEF796F9002010BD00001018002088
:102550000A0601F07F01D0F8C80201EBC10100EBCF
:10256000810002D590F83E00704790F87E027047D7
:1025700010B5D0F8D42200EB8202D2F8B82222B1F2
:1025800090F89C32032B02D004E0032010BD126AA5
:1025900002B19047002010BD10B5D0F8D42200EB56
:1025A0008202D2F8B82222B190F89C32032B02D0DA
:1025B00004E0032010BD526A02B19047002010BD14
:1025C00010B51C461346D0F8C8022246FEF7FAF9A9
:1025D000BDE81040FFF7A3BE10B5D0F8C802FEF763
:1025E00021FABDE81040FFF79ABE2DE9F041002620
:1025F0000125044680F89C52C4F894626660C4F8D1
:10260000A46280F8A062D0F8B80230B1426822B16A
:1026100000212046904700B10326002240231146A6
:102620002046FFF7CDFF4027A4F864513B46002227
:1026300080212046C4F86071FFF7C2FFA5843046B0
:102640002762BDE8F08190F89C12042903D190F82C
:102650009D1280F89C120020704710B590F89C12D3
:10266000032905D1D0F8B81211B1C96901B1884761
:10267000002010BD01740020704710B5D0F8C802CA
:10268000FEF7D8FDBDE81040FFF749BE70B504461F
:1026900000F2AA20054600F04DF80120C4F894028B
:1026A000B4F8B002C4F8980294F8AA0210F01F011E
:1026B0000AD001290ED0022912D000F08001204654
:1026C000BDE8704000F012B829462046BDE87040D1
:1026D00000F0CCB829462046BDE8704000F00CBAA6
:1026E00029462046BDE8704000F056B910B5D0F834
:1026F000C802FEF7BBF9BDE81040FFF710BE10B5E9
:10270000D0F8C802FEF7B1FDBDE81040FFF707BEE4
:1027100090F89C1280F89D12042180F89C120020F1
:10272000704710B5D0F8C802FEF7DAF9BDE81040DE
:10273000FFF7F5BD70B5054611F8010B2870087854
:1027400068704C1C2046FFF784F96880A41C204662
:10275000FFF77FF9A880A01CFFF77BF9E88070BD28
:1027600038B504460020ADF80000A1B1C4F8B81295
:10277000D4F8D40204EB8000D0F8B802C16A19B1D1
:1027800068468847C4F8D002D4F8D802401CC4F880
:10279000D802002038BD032038BD02460020D2F800
:1027A000B832002B02D01B68104618477047000053
:1027B0002DE9F04188462B4E89780025044631707A
:1027C000012906D941462046FFF73CFC0320BDE81D
:1027D000F08194F89C02022702280CD003281DD017
:1027E00041462046FFF72EFC31782046FFF70CFCCF
:1027F00003252846EBE789B320466160FFF7CDFF4C
:10280000050004D041462046FFF71CFC1DE0204691
:10281000FFF74AFC032084F89C02EAE7C1B1606834
:1028200088421BD0C1B22046FFF7EEFB317820462C
:102830006160FFF7B2FF050010D041462046FFF768
:1028400001FC21792046FFF7DFFB84F89C72D0E77A
:1028500084F89C7220466160FFF7D6FB2046FFF7A4
:1028600023FCC6E784000020FFF749BF2DE9F041B3
:102870000A78002512F060020CD0202A01D0402AEC
:102880007DD1D0F8D42200EB8202D2F8B82292682F
:10289000904731E04B78002201260A2B6FD2DFE807
:1028A00003F041666E586E08056E2D29FFF77CFC1B
:1028B00067E004468888D8B9C888C8B9488880289D
:1028C00016D200F07F0794F89C02032810D084F8F9
:1028D0009E7239462046FFF7D0FE2046FFF7E4FB04
:1028E0001FB1022084F89C024BE084F89C6248E00F
:1028F000204644E0FFF75CFF054642E0CB88012B11
:102900003DD190F89C32012B04D0022B02D0032B36
:1029100035D104E08260012200F1080116E00122B5
:10292000011D13E090F89C22012A03D0022A01D055
:10293000032A24D1CA88022A21D1C660D0F8A41261
:1029400009B10321C160022200F10C01FFF79FFBD6
:1029500017E04A88012A02D0022A03D00FE0C0F80B
:10296000A46216E08988090A80F8A01211E090F8A4
:102970009C32012B08D0022B06D0032B04D0FFF78A
:1029800061FB2846BDE8F08149880129F9D1C0F8EA
:10299000A422FFF789FBF4E72DE9F041054608780A
:1029A0000C790E464FF0000810F060000BD0202884
:1029B00001D040286AD121462846FFF72FFBFF2887
:1029C00000D0D8B395E07078C8B3012824D003288C
:1029D0005CD195F89C02022802D0032856D10CE065
:1029E000002C53D0802C51D021462846FFF77EFE84
:1029F00080212846FFF77AFE7BE0708840B93CB121
:102A0000802C05D0C88818B921462846FFF76EFEED
:102A10002846FFF749FB6CE095F89C020228DFD0BE
:102A2000032863D1708880BB600603D02146284606
:102A3000FFF794FC2846FFF737FBBCE700E00AE00D
:102A4000C5F8D402D5F8B8028268F2B131462846FA
:102A5000904780464DE095F89C020027022802D05E
:102A6000032843D113E00CB1802C3FD1200604F0A1
:102A70007F0000EB800005EB800101D5143101E0FF
:102A800001F5AA7102220F602CE032E02EE0200650
:102A900004F00F0000EB800005EB800009D5808C6E
:102AA00020B304F07F0000EB800005EB80061436B5
:102AB0000AE0B0F86401C8B104F07F0000EB8000C8
:102AC00005EB800606F5AA764CB1802C07D021468E
:102AD0002846FFF73DFD10B10120306000E037606F
:102AE000022231462846FFF7D2FA02E02846FFF7D5
:102AF000A9FA4046BDE8F08170B505460878002483
:102B00000E4610F0600003D0202801D0402827D1C5
:102B100095F89C02012803D0022801D003281FD178
:102B2000B088C1B201291AD8C1B22846FFF778FA95
:102B3000FF280CD058B9D5F8B8128A683AB1C5F850
:102B4000D4028A68314628469047044600E00324B0
:102B5000F088204307D12846FFF7A6FA03E0314664
:102B60002846FFF76FFA204670BD7047004870474F
:102B7000F015002070B50A78012302F00F054E7899
:102B8000AB401B4CD0F81C58012E17D045EA03432C
:102B9000C0F81C3800EB4210D0F8002B12040BD404
:102BA000D0F8002B8B890979C3F30A031A4344EA4E
:102BB00081410A43C0F8002B002070BD9BB21D4329
:102BC000C0F81C5800EB4210D0F800391B04F3D4B5
:102BD000D0F800398D890979C5F30A0589042B439A
:102BE00041EA82510B432343C0F80039E4E7000077
:102BF00000800010D0F800196FF30A01C0F8001926
:102C0000D0F8041841F48071C0F80418002070470F
:102C100070B5044606990A9E049D0D98012916D0A8
:102C2000E06840F04000E060204600F02BF8A16B27
:102C30001EB321F48031A163012D07D1A16841F0B9
:102C40000601A160A16841F02001A16070BDA16BE7
:102C500021F48031A163E168094A1140E160E16833
:102C600021F44011E160012803D1E06840F48010B4
:102C7000E060204600F006F8DEE741F48031DAE754
:102C8000BFFFBDFF08B500220D490092009B5B1CF1
:102C900000938B420CD80369002BF7DA009202698B
:102CA00042F001020261009A521C00928A4201D94C
:102CB000032008BD0269D207F5D1002008BD00003D
:102CC000400D030030B54C780A78012300EB421226
:102CD000012C2CD0D2F8004B002C0BDAD2F8004B90
:102CE00044F00064C2F8004BD2F8004B44F080443A
:102CF000C2F8004BD0F83C580C7804F00F0403FAEB
:102D000004F425EA0444C0F83C48D0F81C4809788B
:102D100001F00F018B4024EA0341C0F81C18D2F8DF
:102D2000000B19490840C2F8000B002030BDD2F852
:102D30000049002C0BDAD2F8004944F00064C2F8D4
:102D40000049D2F8004944F08044C2F80049D0F864
:102D50003C480D7805F00F0503FA05F5ADB2AC431C
:102D6000C0F83C48D0F81C48097801F00F018B40AE
:102D700099B28C43C0F81C48D2F8000903490840B6
:102D8000C2F80009D1E700000078F3EF007833ECD7
:102D9000D0F8001E21F00301C0F8001ED0F804187E
:102DA00021F00201C0F8041800207047D0F8001E7E
:102DB00021F00301C0F8001ED0F8041841F0020110
:102DC000C0F80418002070472DE9F04F00250E468A
:102DD0000446DDF82CC0DDF824B0109F28462946B3
:102DE00004EB8002C2F80411401C0F28F8D32046DF
:102DF000C7B1806B20F40012A263A06B40F40022E4
:102E0000A26308468846C4F8000ED4F8001820468D
:102E1000C4F80018BCF1010F16D0D0F8001841F02A
:102E2000030116E0D0F8040840F00202C4F80428B8
:102E3000A06B40F40012A263A06B20F40022A263F6
:102E4000A06B20F48022DBE7D0F800180BB141F032
:102E50000101C0F80018102100F0EEFA00B10125C0
:102E6000204600F0CBFA00B101254046C4F8108896
:102E7000C4F81488C4F81C8800214FF000694FF092
:102E8000904A4FF67F3314E004EB4112D2F800C9A8
:102E9000BCF1000F06DA11B1C2F800A904E0C4F8D1
:102EA000009901E0C2F80009C2F81009C2F8083917
:102EB000491C8E42E8D8002115E000BF04EB411206
:102EC000D2F800CBBCF1000F06DA11B1C2F800ABAA
:102ED00004E0C4F8009B01E0C2F8000BC2F8100B3C
:102EE000C2F8083B491C8E42E8D8D4F8101821F4E7
:102EF0008072C4F81028A0616FF080406061BBF15F
:102F0000000F03D1A06940F01000A061A069094939
:102F10000843A0610C9818B1A06940F00800A061B6
:102F2000012F03D1A06904490843A0612846BDE8E8
:102F3000F08F000000383C8004000040816821F0E0
:102F4000010181600020704770B50D784E78444CC7
:102F5000EBB200EB4313012E21D0D3F8100B6FF32B
:102F60001200C3F8100BD3F8100B2040C3F8100B5D
:102F7000886908B1C8688861C868C861D3F8100B4F
:102F800040F40020C3F8100BD3F8100BCC69C4F345
:102F900012042043C3F8100B012A55D058E08E6963
:102FA000002ED3F8106932D06FF31206C3F81069FF
:102FB000D3F810692640C3F810698E69CC68A64220
:102FC00000D98C61D3F8104944F40024C3F81049A7
:102FD000D3F810498E69C6F312063443C3F810497A
:102FE000012A22D000EB4512D2F8003943F0044305
:102FF000C2F800398A6932B3D0F83428097801F070
:103000000F03012199400A43C0F8342826E02640E6
:10301000C3F81069D3F8104944F40024C3F81049E8
:10302000D3F810496FF31204D8E7496919B100EBDE
:103030004512C2F8141900EB4510D0F8001941F000
:103040000441C0F8001909E0086908B1C3F8140B7D
:10305000D3F8000B40F00440C3F8000B002070BD13
:10306000FFFF07E010B5036C134CA34203D9D0F85F
:10307000003B002B1EDB0023C0F8103BD0F8103BB8
:1030800043F40023C0F8103BD0F8103B43F0180382
:10309000C0F8103BD0F8103B43F0C043C0F8103BE1
:1030A000012907D1C0F8142BD0F8001B41F0802172
:1030B000C0F8001B002010BD0A30544F4A780B782E
:1030C000012A00EB43100BD0D0F8002B22F40012A1
:1030D000C0F8002B0979032914D0022912D017E077
:1030E000D0F8002922F40012C0F800290979032938
:1030F00001D002290CD1D0F8001941F08051C0F85C
:10310000001905E0D0F8001B41F08051C0F8001B09
:10311000002070470A784B78D1B200EB4110012BA8
:1031200012D0D0F8001B002906DB2AB1D0F8001B12
:1031300021F08041C0F8001BD0F8001B41F40011C1
:10314000C0F8001B00207047D0F80019002906DBEA
:103150002AB1D0F8001921F08041C0F80019D0F848
:10316000001941F40011C0F80019EBE7F8B50C782C
:103170004F78764DE3B26FF0604600EB4313012FBA
:1031800027D0D3F8104B6FF31204C3F8104BD3F8C9
:10319000104B2C40C3F8104B8D69002D75D0CC68B6
:1031A00025446D1EB5FBF4F5ADB26C43CC61D3F88C
:1031B000104B06EAC5452C43C3F8104BD3F8104B0F
:1031C000CD69C5F312052C43C3F8104B012A71D009
:1031D000A4E08F691FB3D3F810796FF31207C3F817
:1031E0001079D3F810792F40C3F810798F69CD6822
:1031F0002F447F1EB7FBF5F506EAC545D3F81069E5
:103200003543C3F81059D3F810598E69C6F3120626
:103210003543C3F810590D79012D10D01BE0D3F8B8
:1032200010692E40C3F81069D3F8105945F40025F1
:10323000C3F81059D3F810596FF3120509E0D3F809
:10324000105925F0C045C3F81059D3F8105945F06E
:103250000055C3F81059012A18D000EB4413D3F8D5
:10326000004944F00444C3F800490C79012C2FD0E4
:103270008A6962B3D0F83428097801F00F0301217C
:1032800099400A43C0F834285EE036E04A691AB132
:1032900000EB4413C3F81429097901290FD1D0F8A0
:1032A0000818C90500EB4411D1F8002903D442F0F5
:1032B000005202E02EE042F08052C1F8002900EBFB
:1032C0004410D0F8001941F00441C0F800193BE067
:1032D000D0F80848E405D3F8004902D444F000547B
:1032E00001E044F08054C3F8004900920A8B93B285
:1032F0000A78096900F0D0F926E0D3F8104BCD68C0
:10330000C5F312052C43C3F8104BD3F8104B44F40B
:10331000002459E70A690AB1C3F8142B0979012975
:103320000CD1D0F80808C005D3F8000B02D440F047
:10333000005001E040F08050C3F8000BD3F8000BC0
:1033400040F00440C3F8000B0020F8BDFFFF07E089
:1033500038B50022009213464D780A7842F2107474
:1033600000EB4212012D19D0D2F8005B002D3CDA9F
:10337000D2F8005B45F00065C2F8005B0A7800EB0C
:103380004212D2F8005B45F08045C2F8005B009A1B
:10339000521C0092A24221D9012326E0D2F8005902
:1033A000002D22DAD2F8005945F00065C2F8005924
:1033B0000A7800EB4212D2F8005945F08045C2F875
:1033C0000059009A521C0092A242E5D80A7800EBFC
:1033D0004212D2F80029002AF3DB06E00A7800EB5B
:1033E0004212D2F8002B002AD1DB184638BD816882
:1033F00041F00101816000207047000008B5002203
:103400000C490092009B5B1C00938B420AD8036915
:10341000002BF7DA009210220261009A521C0092EF
:103420008A4201D9032008BD0269D206F5D40020E2
:1034300008BD0000400D030018B500230D4A00939D
:10344000009C641C009494420CD80469002CF7DAA8
:103450000093202343EA811101610099491C0091E6
:10346000914201D9032018BD01698906F5D40020D5
:1034700018BD0000400D0300D0F8080810F0060049
:1034800004D0022803D0062801D00F207047022064
:103490007047406900F001007047D0F81818D0F864
:1034A0001C08084080B27047D0F81818D0F81C08E3
:1034B0000840000C704710B5D0F81038D0F8342808
:1034C00001F00F0400EB4110E24002F00102D0F8DD
:1034D000080943EAC212104010BD00EB4111D1F8B7
:1034E000081BD0F8140808407047416980690840FB
:1034F000704730B503460846940802F003010022E5
:1035000003F5805303E01D6840F8045B521CA2429F
:10351000F9D300290BD01C680022D50024FA05F34A
:10352000491E521C090400F8013B090CF5D130BDBD
:1035300070B50446C068002520F0C040E060012955
:1035400001D079B120E0E06840F00050E060012057
:10355000FCF7E0FF60696D1C10F0010F10D1322DF7
:10356000F5D30DE0E06840F08040E0600120FCF71A
:10357000D1FF60696D1C10F0010F01D0322DF5D321
:10358000322D01D0002070BD012070BDD0F8002880
:1035900022F4FE62C0F80028D0F800284FF4FE6341
:1035A00003EA01110A43C0F8002800207047000018
:1035B000022A3ED1264A274B0A449A4201D20F21C1
:1035C00038E0254A254B0A449A4201D20E2131E0C7
:1035D000234A244B0A449A4201D20D212AE0224A6E
:1035E000224B0A449A4201D20C2123E0204A214B6B
:1035F0000A449A4201D20B211CE01F4A1F4B0A4485
:103600009A4201D20A2115E01D4A1E4B0A449A42F1
:103610000FD31D4A1D4B0A449A4201D2082109E0EA
:103620001B4A11441B4A914201D2072102E00621A4
:1036300000E00921C26822F47052C260C2684FF4EF
:10364000705303EA81210A43C260002070470000E2
:10365000405327FF00350C00401E1BFF40420F0067
:1036600000DC0BFF804F1200808CF9FE20D6130087
:1036700060B6E5FE60E3160000D3CEFE40771B0087
:10368000C05BB3FEC091210000CA91FE20753800D6
:10369000E05459FEE09C410010B5029C74B9DB1C5B
:1036A0009C0800EB0230002300F5805004E000BFCE
:1036B00051F8042B02605B1CA342F9D3002010BD1B
:1036C000FEE70907090E002804DB00F1E02080F87E
:1036D0000014704700F00F0000F1E02080F8141D86
:1036E00070470000FDF72EF8FEF7BAF9FEF7B0F8C4
:1036F000FEF7C4F8084801214FF47A740180890765
:10370000C0F802100321817107210348FCF7E8FE8D
:103710002046FCF7FFFEF7E7000000204FF0407066
:10372000E1EE100A704700000000000000000102F6
:1037300003040607080900005837000800000020AD
:1037400014010000C40100086C38000814010020B6
:103750006C220000E00100080000000000000000F2
:103760000000000000000000E12000081121000816
:103770001D2100084521000871210008C120000812
:10378000ED200008040309041201000202020040B7
:103790008304405700020102030100001A030000E5
:1037A0000000000000000000000000000000000019
:1037B00000000000000000008D04000889040008DB
:1037C00085040008B1040008DD04000801000000C1
:1037D00010000000000000000024F40000000000C1
:1037E000810182000A060002000000400100000082
:1037F00009024300020100C0320904000001020274
:103800000100052400100105240100010424020226
:1038100005240600010705820308001009040100C1
:10382000020A0000000705010240000007058102AE
:1038300040000000451D0008B91B0008E31E0008F9
:1038400000000000491C0008051B00087B1B000845
:10385000000000000000000000000000C91C00087B
:0C3860008D1C0008091D0008811C0008D8
:040000050800018965
:00000001FF
